{
  "contractName": "CharlyToken",
  "abi": [
    {
      "inputs": [
        {
          "internalType": "uint256",
          "name": "initialSupply",
          "type": "uint256"
        },
        {
          "internalType": "address",
          "name": "_marketingWallet",
          "type": "address"
        },
        {
          "internalType": "address",
          "name": "initialHolder",
          "type": "address"
        }
      ],
      "stateMutability": "nonpayable",
      "type": "constructor"
    },
    {
      "inputs": [
        {
          "internalType": "address",
          "name": "spender",
          "type": "address"
        },
        {
          "internalType": "uint256",
          "name": "allowance",
          "type": "uint256"
        },
        {
          "internalType": "uint256",
          "name": "needed",
          "type": "uint256"
        }
      ],
      "name": "ERC20InsufficientAllowance",
      "type": "error"
    },
    {
      "inputs": [
        {
          "internalType": "address",
          "name": "sender",
          "type": "address"
        },
        {
          "internalType": "uint256",
          "name": "balance",
          "type": "uint256"
        },
        {
          "internalType": "uint256",
          "name": "needed",
          "type": "uint256"
        }
      ],
      "name": "ERC20InsufficientBalance",
      "type": "error"
    },
    {
      "inputs": [
        {
          "internalType": "address",
          "name": "approver",
          "type": "address"
        }
      ],
      "name": "ERC20InvalidApprover",
      "type": "error"
    },
    {
      "inputs": [
        {
          "internalType": "address",
          "name": "receiver",
          "type": "address"
        }
      ],
      "name": "ERC20InvalidReceiver",
      "type": "error"
    },
    {
      "inputs": [
        {
          "internalType": "address",
          "name": "sender",
          "type": "address"
        }
      ],
      "name": "ERC20InvalidSender",
      "type": "error"
    },
    {
      "inputs": [
        {
          "internalType": "address",
          "name": "spender",
          "type": "address"
        }
      ],
      "name": "ERC20InvalidSpender",
      "type": "error"
    },
    {
      "anonymous": false,
      "inputs": [
        {
          "indexed": true,
          "internalType": "address",
          "name": "owner",
          "type": "address"
        },
        {
          "indexed": true,
          "internalType": "address",
          "name": "spender",
          "type": "address"
        },
        {
          "indexed": false,
          "internalType": "uint256",
          "name": "value",
          "type": "uint256"
        }
      ],
      "name": "Approval",
      "type": "event"
    },
    {
      "anonymous": false,
      "inputs": [
        {
          "indexed": true,
          "internalType": "address",
          "name": "from",
          "type": "address"
        },
        {
          "indexed": true,
          "internalType": "address",
          "name": "to",
          "type": "address"
        },
        {
          "indexed": false,
          "internalType": "uint256",
          "name": "value",
          "type": "uint256"
        }
      ],
      "name": "Transfer",
      "type": "event"
    },
    {
      "inputs": [
        {
          "internalType": "address",
          "name": "owner",
          "type": "address"
        },
        {
          "internalType": "address",
          "name": "spender",
          "type": "address"
        }
      ],
      "name": "allowance",
      "outputs": [
        {
          "internalType": "uint256",
          "name": "",
          "type": "uint256"
        }
      ],
      "stateMutability": "view",
      "type": "function"
    },
    {
      "inputs": [
        {
          "internalType": "address",
          "name": "spender",
          "type": "address"
        },
        {
          "internalType": "uint256",
          "name": "value",
          "type": "uint256"
        }
      ],
      "name": "approve",
      "outputs": [
        {
          "internalType": "bool",
          "name": "",
          "type": "bool"
        }
      ],
      "stateMutability": "nonpayable",
      "type": "function"
    },
    {
      "inputs": [
        {
          "internalType": "address",
          "name": "account",
          "type": "address"
        }
      ],
      "name": "balanceOf",
      "outputs": [
        {
          "internalType": "uint256",
          "name": "",
          "type": "uint256"
        }
      ],
      "stateMutability": "view",
      "type": "function"
    },
    {
      "inputs": [],
      "name": "decimals",
      "outputs": [
        {
          "internalType": "uint8",
          "name": "",
          "type": "uint8"
        }
      ],
      "stateMutability": "view",
      "type": "function"
    },
    {
      "inputs": [],
      "name": "marketingWallet",
      "outputs": [
        {
          "internalType": "address",
          "name": "",
          "type": "address"
        }
      ],
      "stateMutability": "view",
      "type": "function"
    },
    {
      "inputs": [],
      "name": "name",
      "outputs": [
        {
          "internalType": "string",
          "name": "",
          "type": "string"
        }
      ],
      "stateMutability": "view",
      "type": "function"
    },
    {
      "inputs": [],
      "name": "symbol",
      "outputs": [
        {
          "internalType": "string",
          "name": "",
          "type": "string"
        }
      ],
      "stateMutability": "view",
      "type": "function"
    },
    {
      "inputs": [],
      "name": "totalSupply",
      "outputs": [
        {
          "internalType": "uint256",
          "name": "",
          "type": "uint256"
        }
      ],
      "stateMutability": "view",
      "type": "function"
    },
    {
      "inputs": [
        {
          "internalType": "address",
          "name": "from",
          "type": "address"
        },
        {
          "internalType": "address",
          "name": "to",
          "type": "address"
        },
        {
          "internalType": "uint256",
          "name": "value",
          "type": "uint256"
        }
      ],
      "name": "transferFrom",
      "outputs": [
        {
          "internalType": "bool",
          "name": "",
          "type": "bool"
        }
      ],
      "stateMutability": "nonpayable",
      "type": "function"
    },
    {
      "inputs": [
        {
          "internalType": "address",
          "name": "recipient",
          "type": "address"
        },
        {
          "internalType": "uint256",
          "name": "amount",
          "type": "uint256"
        }
      ],
      "name": "transfer",
      "outputs": [
        {
          "internalType": "bool",
          "name": "",
          "type": "bool"
        }
      ],
      "stateMutability": "nonpayable",
      "type": "function"
    },
    {
      "inputs": [
        {
          "internalType": "uint256",
          "name": "amount",
          "type": "uint256"
        }
      ],
      "name": "burn",
      "outputs": [],
      "stateMutability": "nonpayable",
      "type": "function"
    }
  ],
  "bytecode": "0x608060405234801562000010575f80fd5b5060405162001a7a38038062001a7a8339818101604052810190620000369190620004d9565b6040518060400160405280600b81526020017f436861726c79546f6b656e0000000000000000000000000000000000000000008152506040518060400160405280600381526020017f43485400000000000000000000000000000000000000000000000000000000008152508160039081620000b391906200078d565b508060049081620000c591906200078d565b5050508160055f6101000a81548173ffffffffffffffffffffffffffffffffffffffff021916908373ffffffffffffffffffffffffffffffffffffffff16021790555062000136816064605a866200011e91906200089e565b6200012a919062000915565b6200018e60201b60201c565b6200018560055f9054906101000a900473ffffffffffffffffffffffffffffffffffffffff166064600a866200016d91906200089e565b62000179919062000915565b6200018e60201b60201c565b50505062000a19565b5f73ffffffffffffffffffffffffffffffffffffffff168273ffffffffffffffffffffffffffffffffffffffff160362000201575f6040517fec442f05000000000000000000000000000000000000000000000000000000008152600401620001f891906200095d565b60405180910390fd5b620002145f83836200021860201b60201c565b5050565b5f73ffffffffffffffffffffffffffffffffffffffff168373ffffffffffffffffffffffffffffffffffffffff16036200026c578060025f8282546200025f919062000978565b925050819055506200033d565b5f805f8573ffffffffffffffffffffffffffffffffffffffff1673ffffffffffffffffffffffffffffffffffffffff1681526020019081526020015f2054905081811015620002f8578381836040517fe450d38c000000000000000000000000000000000000000000000000000000008152600401620002ef93929190620009c3565b60405180910390fd5b8181035f808673ffffffffffffffffffffffffffffffffffffffff1673ffffffffffffffffffffffffffffffffffffffff1681526020019081526020015f2081905550505b5f73ffffffffffffffffffffffffffffffffffffffff168273ffffffffffffffffffffffffffffffffffffffff160362000386578060025f8282540392505081905550620003d0565b805f808473ffffffffffffffffffffffffffffffffffffffff1673ffffffffffffffffffffffffffffffffffffffff1681526020019081526020015f205f82825401925050819055505b8173ffffffffffffffffffffffffffffffffffffffff168373ffffffffffffffffffffffffffffffffffffffff167fddf252ad1be2c89b69c2b068fc378daa952ba7f163c4a11628f55a4df523b3ef836040516200042f9190620009fe565b60405180910390a3505050565b5f80fd5b5f819050919050565b620004548162000440565b81146200045f575f80fd5b50565b5f81519050620004728162000449565b92915050565b5f73ffffffffffffffffffffffffffffffffffffffff82169050919050565b5f620004a38262000478565b9050919050565b620004b58162000497565b8114620004c0575f80fd5b50565b5f81519050620004d381620004aa565b92915050565b5f805f60608486031215620004f357620004f26200043c565b5b5f620005028682870162000462565b93505060206200051586828701620004c3565b92505060406200052886828701620004c3565b9150509250925092565b5f81519050919050565b7f4e487b71000000000000000000000000000000000000000000000000000000005f52604160045260245ffd5b7f4e487b71000000000000000000000000000000000000000000000000000000005f52602260045260245ffd5b5f6002820490506001821680620005ae57607f821691505b602082108103620005c457620005c362000569565b5b50919050565b5f819050815f5260205f209050919050565b5f6020601f8301049050919050565b5f82821b905092915050565b5f60088302620006287fffffffffffffffffffffffffffffffffffffffffffffffffffffffffffffffff82620005eb565b620006348683620005eb565b95508019841693508086168417925050509392505050565b5f819050919050565b5f620006756200066f620006698462000440565b6200064c565b62000440565b9050919050565b5f819050919050565b620006908362000655565b620006a86200069f826200067c565b848454620005f7565b825550505050565b5f90565b620006be620006b0565b620006cb81848462000685565b505050565b5b81811015620006f257620006e65f82620006b4565b600181019050620006d1565b5050565b601f82111562000741576200070b81620005ca565b6200071684620005dc565b8101602085101562000726578190505b6200073e6200073585620005dc565b830182620006d0565b50505b505050565b5f82821c905092915050565b5f620007635f198460080262000746565b1980831691505092915050565b5f6200077d838362000752565b9150826002028217905092915050565b620007988262000532565b67ffffffffffffffff811115620007b457620007b36200053c565b5b620007c0825462000596565b620007cd828285620006f6565b5f60209050601f83116001811462000803575f8415620007ee578287015190505b620007fa858262000770565b86555062000869565b601f1984166200081386620005ca565b5f5b828110156200083c5784890151825560018201915060208501945060208101905062000815565b868310156200085c578489015162000858601f89168262000752565b8355505b6001600288020188555050505b505050505050565b7f4e487b71000000000000000000000000000000000000000000000000000000005f52601160045260245ffd5b5f620008aa8262000440565b9150620008b78362000440565b9250828202620008c78162000440565b91508282048414831517620008e157620008e062000871565b5b5092915050565b7f4e487b71000000000000000000000000000000000000000000000000000000005f52601260045260245ffd5b5f620009218262000440565b91506200092e8362000440565b925082620009415762000940620008e8565b5b828204905092915050565b620009578162000497565b82525050565b5f602082019050620009725f8301846200094c565b92915050565b5f620009848262000440565b9150620009918362000440565b9250828201905080821115620009ac57620009ab62000871565b5b92915050565b620009bd8162000440565b82525050565b5f606082019050620009d85f8301866200094c565b620009e76020830185620009b2565b620009f66040830184620009b2565b949350505050565b5f60208201905062000a135f830184620009b2565b92915050565b6110538062000a275f395ff3fe608060405234801561000f575f80fd5b50600436106100a7575f3560e01c806342966c681161006f57806342966c681461016557806370a082311461018157806375f0a874146101b157806395d89b41146101cf578063a9059cbb146101ed578063dd62ed3e1461021d576100a7565b806306fdde03146100ab578063095ea7b3146100c957806318160ddd146100f957806323b872dd14610117578063313ce56714610147575b5f80fd5b6100b361024d565b6040516100c09190610bd0565b60405180910390f35b6100e360048036038101906100de9190610c81565b6102dd565b6040516100f09190610cd9565b60405180910390f35b6101016102ff565b60405161010e9190610d01565b60405180910390f35b610131600480360381019061012c9190610d1a565b610308565b60405161013e9190610cd9565b60405180910390f35b61014f610336565b60405161015c9190610d85565b60405180910390f35b61017f600480360381019061017a9190610d9e565b61033e565b005b61019b60048036038101906101969190610dc9565b61034b565b6040516101a89190610d01565b60405180910390f35b6101b9610390565b6040516101c69190610e03565b60405180910390f35b6101d76103b5565b6040516101e49190610bd0565b60405180910390f35b61020760048036038101906102029190610c81565b610445565b6040516102149190610cd9565b60405180910390f35b61023760048036038101906102329190610e1c565b6104c2565b6040516102449190610d01565b60405180910390f35b60606003805461025c90610e87565b80601f016020809104026020016040519081016040528092919081815260200182805461028890610e87565b80156102d35780601f106102aa576101008083540402835291602001916102d3565b820191905f5260205f20905b8154815290600101906020018083116102b657829003601f168201915b5050505050905090565b5f806102e7610544565b90506102f481858561054b565b600191505092915050565b5f600254905090565b5f80610312610544565b905061031f85828561055d565b61032a8585856105ef565b60019150509392505050565b5f6012905090565b61034833826106df565b50565b5f805f8373ffffffffffffffffffffffffffffffffffffffff1673ffffffffffffffffffffffffffffffffffffffff1681526020019081526020015f20549050919050565b60055f9054906101000a900473ffffffffffffffffffffffffffffffffffffffff1681565b6060600480546103c490610e87565b80601f01602080910402602001604051908101604052809291908181526020018280546103f090610e87565b801561043b5780601f106104125761010080835404028352916020019161043b565b820191905f5260205f20905b81548152906001019060200180831161041e57829003601f168201915b5050505050905090565b5f8060646001846104569190610ee4565b6104609190610f52565b90505f818461046f9190610f82565b90506104a461047c610544565b60055f9054906101000a900473ffffffffffffffffffffffffffffffffffffffff16846105ef565b6104b66104af610544565b86836105ef565b60019250505092915050565b5f60015f8473ffffffffffffffffffffffffffffffffffffffff1673ffffffffffffffffffffffffffffffffffffffff1681526020019081526020015f205f8373ffffffffffffffffffffffffffffffffffffffff1673ffffffffffffffffffffffffffffffffffffffff1681526020019081526020015f2054905092915050565b5f33905090565b610558838383600161075e565b505050565b5f61056884846104c2565b90507fffffffffffffffffffffffffffffffffffffffffffffffffffffffffffffffff81146105e957818110156105da578281836040517ffb8f41b20000000000000000000000000000000000000000000000000000000081526004016105d193929190610fb5565b60405180910390fd5b6105e884848484035f61075e565b5b50505050565b5f73ffffffffffffffffffffffffffffffffffffffff168373ffffffffffffffffffffffffffffffffffffffff160361065f575f6040517f96c6fd1e0000000000000000000000000000000000000000000000000000000081526004016106569190610e03565b60405180910390fd5b5f73ffffffffffffffffffffffffffffffffffffffff168273ffffffffffffffffffffffffffffffffffffffff16036106cf575f6040517fec442f050000000000000000000000000000000000000000000000000000000081526004016106c69190610e03565b60405180910390fd5b6106da83838361092d565b505050565b5f73ffffffffffffffffffffffffffffffffffffffff168273ffffffffffffffffffffffffffffffffffffffff160361074f575f6040517f96c6fd1e0000000000000000000000000000000000000000000000000000000081526004016107469190610e03565b60405180910390fd5b61075a825f8361092d565b5050565b5f73ffffffffffffffffffffffffffffffffffffffff168473ffffffffffffffffffffffffffffffffffffffff16036107ce575f6040517fe602df050000000000000000000000000000000000000000000000000000000081526004016107c59190610e03565b60405180910390fd5b5f73ffffffffffffffffffffffffffffffffffffffff168373ffffffffffffffffffffffffffffffffffffffff160361083e575f6040517f94280d620000000000000000000000000000000000000000000000000000000081526004016108359190610e03565b60405180910390fd5b8160015f8673ffffffffffffffffffffffffffffffffffffffff1673ffffffffffffffffffffffffffffffffffffffff1681526020019081526020015f205f8573ffffffffffffffffffffffffffffffffffffffff1673ffffffffffffffffffffffffffffffffffffffff1681526020019081526020015f20819055508015610927578273ffffffffffffffffffffffffffffffffffffffff168473ffffffffffffffffffffffffffffffffffffffff167f8c5be1e5ebec7d5bd14f71427d1e84f3dd0314c0f7b2291e5b200ac8c7c3b9258460405161091e9190610d01565b60405180910390a35b50505050565b5f73ffffffffffffffffffffffffffffffffffffffff168373ffffffffffffffffffffffffffffffffffffffff160361097d578060025f8282546109719190610fea565b92505081905550610a4b565b5f805f8573ffffffffffffffffffffffffffffffffffffffff1673ffffffffffffffffffffffffffffffffffffffff1681526020019081526020015f2054905081811015610a06578381836040517fe450d38c0000000000000000000000000000000000000000000000000000000081526004016109fd93929190610fb5565b60405180910390fd5b8181035f808673ffffffffffffffffffffffffffffffffffffffff1673ffffffffffffffffffffffffffffffffffffffff1681526020019081526020015f2081905550505b5f73ffffffffffffffffffffffffffffffffffffffff168273ffffffffffffffffffffffffffffffffffffffff1603610a92578060025f8282540392505081905550610adc565b805f808473ffffffffffffffffffffffffffffffffffffffff1673ffffffffffffffffffffffffffffffffffffffff1681526020019081526020015f205f82825401925050819055505b8173ffffffffffffffffffffffffffffffffffffffff168373ffffffffffffffffffffffffffffffffffffffff167fddf252ad1be2c89b69c2b068fc378daa952ba7f163c4a11628f55a4df523b3ef83604051610b399190610d01565b60405180910390a3505050565b5f81519050919050565b5f82825260208201905092915050565b5f5b83811015610b7d578082015181840152602081019050610b62565b5f8484015250505050565b5f601f19601f8301169050919050565b5f610ba282610b46565b610bac8185610b50565b9350610bbc818560208601610b60565b610bc581610b88565b840191505092915050565b5f6020820190508181035f830152610be88184610b98565b905092915050565b5f80fd5b5f73ffffffffffffffffffffffffffffffffffffffff82169050919050565b5f610c1d82610bf4565b9050919050565b610c2d81610c13565b8114610c37575f80fd5b50565b5f81359050610c4881610c24565b92915050565b5f819050919050565b610c6081610c4e565b8114610c6a575f80fd5b50565b5f81359050610c7b81610c57565b92915050565b5f8060408385031215610c9757610c96610bf0565b5b5f610ca485828601610c3a565b9250506020610cb585828601610c6d565b9150509250929050565b5f8115159050919050565b610cd381610cbf565b82525050565b5f602082019050610cec5f830184610cca565b92915050565b610cfb81610c4e565b82525050565b5f602082019050610d145f830184610cf2565b92915050565b5f805f60608486031215610d3157610d30610bf0565b5b5f610d3e86828701610c3a565b9350506020610d4f86828701610c3a565b9250506040610d6086828701610c6d565b9150509250925092565b5f60ff82169050919050565b610d7f81610d6a565b82525050565b5f602082019050610d985f830184610d76565b92915050565b5f60208284031215610db357610db2610bf0565b5b5f610dc084828501610c6d565b91505092915050565b5f60208284031215610dde57610ddd610bf0565b5b5f610deb84828501610c3a565b91505092915050565b610dfd81610c13565b82525050565b5f602082019050610e165f830184610df4565b92915050565b5f8060408385031215610e3257610e31610bf0565b5b5f610e3f85828601610c3a565b9250506020610e5085828601610c3a565b9150509250929050565b7f4e487b71000000000000000000000000000000000000000000000000000000005f52602260045260245ffd5b5f6002820490506001821680610e9e57607f821691505b602082108103610eb157610eb0610e5a565b5b50919050565b7f4e487b71000000000000000000000000000000000000000000000000000000005f52601160045260245ffd5b5f610eee82610c4e565b9150610ef983610c4e565b9250828202610f0781610c4e565b91508282048414831517610f1e57610f1d610eb7565b5b5092915050565b7f4e487b71000000000000000000000000000000000000000000000000000000005f52601260045260245ffd5b5f610f5c82610c4e565b9150610f6783610c4e565b925082610f7757610f76610f25565b5b828204905092915050565b5f610f8c82610c4e565b9150610f9783610c4e565b9250828203905081811115610faf57610fae610eb7565b5b92915050565b5f606082019050610fc85f830186610df4565b610fd56020830185610cf2565b610fe26040830184610cf2565b949350505050565b5f610ff482610c4e565b9150610fff83610c4e565b925082820190508082111561101757611016610eb7565b5b9291505056fea2646970667358221220d4fa6f3050823a15f49af717a50a03678c3633cb4baa33448876f6e466dc2c0164736f6c63430008140033",
  "immutableReferences": {},
  "source": "// SPDX-License-Identifier: MIT\npragma solidity ^0.8.19;\n\nimport \"@openzeppelin/contracts/token/ERC20/ERC20.sol\";\n\ncontract CharlyToken is ERC20 {\n    address public marketingWallet;\n\n    constructor(uint256 initialSupply, address _marketingWallet, address initialHolder) ERC20(\"CharlyToken\", \"CHT\") {\n        marketingWallet = _marketingWallet;\n        _mint(initialHolder, initialSupply * 90 / 100); // 90% to initial holder\n        _mint(marketingWallet, initialSupply * 10 / 100); // 10% to marketing wallet\n    }\n\n    function transfer(address recipient, uint256 amount) public override returns (bool) {\n        uint256 fee = amount * 1 / 100; // 1% fee\n        uint256 amountAfterFee = amount - fee;\n        super._transfer(_msgSender(), marketingWallet, fee);\n        super._transfer(_msgSender(), recipient, amountAfterFee);\n        return true;\n    }\n\n    function burn(uint256 amount) public {\n        _burn(msg.sender, amount);\n    }\n}\n",
  "sourcePath": "/workspaces/create-erc20-token/contracts/charlytoken.sol",
  "compiler": {
    "name": "solc",
    "version": "0.8.20+commit.a1b79de6.Emscripten.clang"
  },
  "schemaVersion": "3.4.16",
  "updatedAt": "2024-05-07T23:07:13.225Z",
  "devdoc": {
    "errors": {
      "ERC20InsufficientAllowance(address,uint256,uint256)": [
        {
          "details": "Indicates a failure with the `spender`s `allowance`. Used in transfers.",
          "params": {
            "allowance": "Amount of tokens a `spender` is allowed to operate with.",
            "needed": "Minimum amount required to perform a transfer.",
            "spender": "Address that may be allowed to operate on tokens without being their owner."
          }
        }
      ],
      "ERC20InsufficientBalance(address,uint256,uint256)": [
        {
          "details": "Indicates an error related to the current `balance` of a `sender`. Used in transfers.",
          "params": {
            "balance": "Current balance for the interacting account.",
            "needed": "Minimum amount required to perform a transfer.",
            "sender": "Address whose tokens are being transferred."
          }
        }
      ],
      "ERC20InvalidApprover(address)": [
        {
          "details": "Indicates a failure with the `approver` of a token to be approved. Used in approvals.",
          "params": {
            "approver": "Address initiating an approval operation."
          }
        }
      ],
      "ERC20InvalidReceiver(address)": [
        {
          "details": "Indicates a failure with the token `receiver`. Used in transfers.",
          "params": {
            "receiver": "Address to which tokens are being transferred."
          }
        }
      ],
      "ERC20InvalidSender(address)": [
        {
          "details": "Indicates a failure with the token `sender`. Used in transfers.",
          "params": {
            "sender": "Address whose tokens are being transferred."
          }
        }
      ],
      "ERC20InvalidSpender(address)": [
        {
          "details": "Indicates a failure with the `spender` to be approved. Used in approvals.",
          "params": {
            "spender": "Address that may be allowed to operate on tokens without being their owner."
          }
        }
      ]
    },
    "events": {
      "Approval(address,address,uint256)": {
        "details": "Emitted when the allowance of a `spender` for an `owner` is set by a call to {approve}. `value` is the new allowance."
      },
      "Transfer(address,address,uint256)": {
        "details": "Emitted when `value` tokens are moved from one account (`from`) to another (`to`). Note that `value` may be zero."
      }
    },
    "kind": "dev",
    "methods": {
      "allowance(address,address)": {
        "details": "See {IERC20-allowance}."
      },
      "approve(address,uint256)": {
        "details": "See {IERC20-approve}. NOTE: If `value` is the maximum `uint256`, the allowance is not updated on `transferFrom`. This is semantically equivalent to an infinite approval. Requirements: - `spender` cannot be the zero address."
      },
      "balanceOf(address)": {
        "details": "See {IERC20-balanceOf}."
      },
      "decimals()": {
        "details": "Returns the number of decimals used to get its user representation. For example, if `decimals` equals `2`, a balance of `505` tokens should be displayed to a user as `5.05` (`505 / 10 ** 2`). Tokens usually opt for a value of 18, imitating the relationship between Ether and Wei. This is the default value returned by this function, unless it's overridden. NOTE: This information is only used for _display_ purposes: it in no way affects any of the arithmetic of the contract, including {IERC20-balanceOf} and {IERC20-transfer}."
      },
      "name()": {
        "details": "Returns the name of the token."
      },
      "symbol()": {
        "details": "Returns the symbol of the token, usually a shorter version of the name."
      },
      "totalSupply()": {
        "details": "See {IERC20-totalSupply}."
      },
      "transferFrom(address,address,uint256)": {
        "details": "See {IERC20-transferFrom}. Emits an {Approval} event indicating the updated allowance. This is not required by the EIP. See the note at the beginning of {ERC20}. NOTE: Does not update the allowance if the current allowance is the maximum `uint256`. Requirements: - `from` and `to` cannot be the zero address. - `from` must have a balance of at least `value`. - the caller must have allowance for ``from``'s tokens of at least `value`."
      }
    },
    "version": 1
  },
  "userdoc": {
    "kind": "user",
    "methods": {},
    "version": 1
  }
}